:100000000C9472000C9493000C9493000C94930045
:100010000C9493000C9493000C9493000C94930014
:100020000C9493000C9493000C9493000C94930004
:100030000C9493000C9493000C9493000C949300F4
:100040000C9493000C9493000C9493000C949300E4
:100050000C9493000C9493000C9493000C94F50072
:100060000C9493000C9493000C9493000C949300C4
:100070000C9493000C9493000C9493000C949300B4
:100080000C9493000C9493000C9493000C949300A4
:100090000C9493000C9493000C9493000C94930094
:1000A0000C9493000C9493000C9493000C94930084
:1000B0000C9493000C9493000C9493000C94930074
:1000C0000C9493000C9493000C9493000C94930064
:1000D0000C9493000C9493000C9493000C94930054
:1000E0000C94930011241FBECFEFD1E2DEBFCDBF31
:1000F00000E00CBF12E0A0E0B2E0E6E8FFE000E0C4
:100100000BBF02C007900D92A83AB107D9F722E0C1
:10011000A8EAB2E001C01D92A93CB207E1F70E9433
:100120004C030C94C1070C9400000F931F93CF93C2
:10013000DF93CDB7DEB7C054D1090FB6F894DEBF58
:100140000FBECDBF93E19F9398E89F931F928F932B
:1001500084E092E09F938F938E010F5F1F4F1F9358
:100160000F930E94D804C8010E9440030FB6F89470
:10017000DEBF0FBECDBFC05CDF4F0FB6F894DEBF51
:100180000FBECDBFDF91CF911F910F910895809346
:1001900003022091AB023091AC023093AA0220936B
:1001A000A90291E09093020228E833E13093010222
:1001B000209300021092A802EFEFE80FF0E0EE0F9C
:1001C000FF1FEF53FD4F208131812630310560F054
:1001D00020E137E230930102209300021182108265
:1001E0009093A8020C94950008951F920F920FB659
:1001F0000F9211248F939F9386B58A5F86BD80915D
:10020000AB029091AC0201969093AC028093AB024A
:100210009F918F910F900FBE0F901F9018958EBDDC
:100220000DB407FEFDCF8EB50895811104C08091F5
:100230000201877F11C0813021F4809102018F7EFD
:100240000BC0823021F4809102018F7D05C0833084
:1002500029F4809102018F7B80930201089581111E
:1002600004C080910201886011C0813021F4809126
:10027000020180610BC0823021F480910201806212
:1002800005C0833029F480910201806480930201CB
:1002900008951F93CF93DF93D82FC62F142F0E945A
:1002A00015018C2F880F8E770E940F01812F0E94DD
:1002B0000F018D2FDF91CF911F910C942F01CF93C0
:1002C000DF93D82FC62F0E9415018C2F880F8E77B1
:1002D00080680E940F0180E00E940F01C82F8D2FBF
:1002E0000E942F018C2FDF91CF910895CF93DF9340
:1002F000C82FD62F0E945F01482F40686D2F8C2F8A
:10030000DF91CF910C9449018F929F92AF92BF924F
:10031000CF92DF92EF92FF920F931F93CF93DF93D1
:10032000C82F5B01D42F7901680147EF62E00E947A
:10033000490164E08C2F0E945F01482F4F7764E0F1
:100340008C2F0E9449016AE08C2F0E9476014501A2
:100350000D2F10E0C4018A199B098017910740F402
:10036000F40141914F0169E08C2F0E944901F2CFC5
:100370004CE061E08C2F0E9449016DE08C2F0E94BF
:10038000760100ED17E064E08C2F0E945F01D82F0A
:100390000150110911F08173B1F36DE08C2F0E94AF
:1003A0005F01482F4F776DE08C2F0E944901012B90
:1003B00011F4D2E036C066E08C2F0E945F018B7191
:1003C000C1F7D1706AE08C2F0E945F01182F6CE09A
:1003D0008C2F0E945F01877031F0F8E01F9F800D25
:1003E0001124885004C0812F880F880F880FF601D0
:1003F0008083112321F0113118F010E101C011E0C8
:100400006701012F10E0C6018E199F09801791071F
:1004100040F469E08C2F0E945F01F60181936F0127
:10042000F2CF8D2FDF91CF911F910F91FF90EF9021
:10043000DF90CF90BF90AF909F908F900895CF9313
:10044000DF9384B1876084B92398E1E0F1E0808193
:100450008867808380818260808380E00E942F0192
:1004600081E00E942F01C2E0D1E088818062888310
:1004700083E00E942F0188818260888381E58CBDA2
:10048000DF91CF91089567E30C945F01CF93C82F5C
:100490004FE061E00E9449012FEF80E792E0215098
:1004A00080409040E1F700C000004DE86AE28C2FE8
:1004B0000E9449014EE36BE28C2F0E9449014EE1FC
:1004C0006DE28C2F0E94490140E06CE28C2F0E946B
:1004D000490140E465E18C2F0E9449014DE361E14F
:1004E0008C2F0E94490164E18C2F0E945F01982F9C
:1004F000937039F4482F436064E18C2FCF910C94B2
:100500004901CF91089580E00E94460281E00E9457
:10051000460282E00E94460283E00C944602DF928B
:10052000EF92FF920F931F93CF93DF931F92CDB75C
:10053000DEB7D82E162F7A0147E06DE00E94490100
:10054000F70110838E010F5F1F4F970141E0B70144
:100550008D2D0E948401811103C09981903109F091
:1005600082E00F90DF91CF911F910F91FF90EF905C
:10057000DF900895DF92EF92FF920F931F93CF9336
:10058000DF931F92CDB7DEB7D82E7B0140E06DE040
:100590000E94490183E9F701808380E281838E0113
:1005A0000F5F1F4F970142E0B7018D2D0E9484011C
:1005B00081110EC0F70197012C5F3F4F90E04191F0
:1005C0009427E217F307D9F7F7012481921382E009
:1005D0000F90DF91CF911F910F91FF90EF90DF90DF
:1005E0000895FF920F931F93CF93DF9300D01F9234
:1005F0001F92CDB7DEB7F82E80E589831A8240E0DE
:1006000061E08F2D0E9449016AE08F2D0E947601E2
:10061000498169E08F2D0E9449014A8169E08F2D4F
:100620000E9449014CE061E08F2D0E9449018E013A
:100630000B5F1F4F9E012F5F3F4F42E0B9018F2D8F
:100640000E9484010F900F900F900F900F90DF91F8
:10065000CF911F910F91FF9008951092C50087E6EA
:100660008093C40088E18093C10086E08093C2003B
:1006700008959091C00095FFFCCF8093C600089527
:10068000CF93DF93EC018991882319F00E943903FD
:10069000FACFDF91CF910895CF93DF93CDB7DEB737
:1006A000E8970FB6F894DEBF0FBECDBF81B18F6360
:1006B00081B987B18C6F87B912B888B1837088B956
:1006C00014BC83E085BD86E086BD81E080936E002A
:1006D00078940E942D038CE292E00E9440030E94D5
:1006E0001F020E94830281E592E00E94400381E0A4
:1006F0000E94C70033243394CE0101962C0100914F
:10070000AB021091AC028091A9029091AA02081B41
:10071000190B82B1807C82B988B1837088B98091CD
:100720000202882311F18091A80281111EC0E0917C
:100730000302E150F0E0EE0FFF1FEF53FD4F808109
:100740009181069790F08091000290910102885764
:100750009C4E90930102809300021182108230928D
:10076000A802809103020E9495008091000290915E
:1007700001020817190718F4309202022FC0809165
:100780000002909101028053984F0817190718F43E
:100790001092020223C080910302815090E0FC017C
:1007A000EE0FFF1FEF53FD4F11821082FC01E35546
:1007B000FD4F10828091030283708F5F0E94C700FB
:1007C00021EBA22E22E0B22E3DEA632E32E0732E00
:1007D00001EC12E0EE24E394F12C5EC08091030260
:1007E000823091F018F4813031F0EACF8330C1F0DB
:1007F000843011F1E5CF80910202882311F0129A22
:1008000001C0119A139A08C080910202882311F046
:10081000159A01C0149A109A88B1846288B9D0CF11
:1008200080910202882311F0449A01C0439A82B158
:10083000896082B9459AC4CF80910202882311F061
:10084000479A01C0469A82B1896082B9429AB8CF6C
:10085000BE01675D7F4F822D0E94BA02882349F155
:10086000822D0E94F102FFEF29EF80E0F15020403D
:100870008040E1F700C000000E5F1F4F9FEFE91AB4
:10088000F90AE4E0AE0EB11CFFEF6F1A7F0A25E013
:10089000E216F10409F433CF22242A942E0CAE017F
:1008A000475D5F4F66E2822D0E948F028111DBCF90
:1008B000CFCFF3018081882349F044E050E0B501B7
:1008C000CE0189960E94CB04892B51F2F8018081D8
:1008D000918101969183808384E0FE01B996D501D0
:1008E00001900D928A95E1F7F30130828EE792E054
:1008F0000E94400381EC882E82E0982ECC24C39481
:10090000D12CF40180819181F2E08F0E911C9F9394
:100910008F93DF92CF9281E992E09F938F935F92C2
:100920004F920E94D804C2010E944003FFEFCF1AE9
:10093000DF0A0FB6F894DEBF0FBECDBF95E0C91633
:10094000D104F9F68091030290E0E816F90609F067
:1009500087CF80910202882309F482CF8091A80278
:1009600081117ECFF80180819181069708F478CFBC
:10097000809100029091010288579C4E9093010251
:1009800080930002118210823092A80280910302AB
:100990000E94950065CFFB01DC0104C08D910190A0
:1009A000801921F441505040C8F7881B990B0895D5
:1009B0000F931F93CF93DF93CDB7DEB72E970FB66C
:1009C000F894DEBF0FBECDBF0E891F8986E08C83F1
:1009D0001A8309838FEF9FE79E838D83AE01465E66
:1009E0005F4F688D798DCE0101960E940705EF81DA
:1009F000F885E00FF11F10822E960FB6F894DEBF37
:100A00000FBECDBFDF91CF911F910F9108952F920F
:100A10003F924F925F926F927F928F929F92AF928E
:100A2000BF92CF92DF92EF92FF920F931F93CF93DB
:100A3000DF93CDB7DEB72B970FB6F894DEBF0FBEAE
:100A4000CDBF6C017B018A01FC0117821682838174
:100A500081FFCCC1CE0101963C01F6019381F701E3
:100A600093FD859193FF81917F01882309F4BAC199
:100A7000853239F493FD859193FF81917F01853211
:100A800029F4B60190E00E942707E7CF912C212C92
:100A9000312CFFE1F315D8F08B3279F038F4803245
:100AA00079F08332A1F4232D20611DC08D3261F0D5
:100AB000803369F4232D216016C0832D8260382E87
:100AC000E32DE4603E2E2AC0F32DF8601DC037FCF4
:100AD0002DC020ED280F2A3040F08E32B9F436FCBC
:100AE00081C1232D2064322E19C036FE06C08AE053
:100AF000989E200D1124922E11C0EAE02E9E200D0A
:100B00001124222EF32DF0623F2E08C08C3621F4E2
:100B1000832D8068382E02C0883641F4F70193FD9A
:100B2000859193FF81917F018111B3CF982F9F7D94
:100B30009554933028F40C5F1F4F9FE399830DC0A9
:100B4000833631F0833771F0833509F059C021C005
:100B5000F801808189830E5F1F4F88248394912C34
:100B6000530113C02801F2E04F0E511CF801A08080
:100B7000B18036FE03C0692D70E002C06FEF7FEFD9
:100B8000C5010E941C074C018201F32DFF773F2E07
:100B900016C0280122E0420E511CF801A080B1804D
:100BA00036FE03C0692D70E002C06FEF7FEFC50114
:100BB0000E9411074C01F32DF0683F2E820133FC97
:100BC0001BC0822D90E088169906B0F4B60180E231
:100BD00090E00E9427072A94F4CFF50137FC859115
:100BE00037FE81915F01B60190E00E942707211036
:100BF0002A9421E0821A91088114910471F7E8C0C7
:100C0000843611F0893641F5F80137FE07C060815E
:100C10007181828193810C5F1F4F08C06081718157
:100C2000072E000C880B990B0E5F1F4FF32DFF76DC
:100C30003F2E97FF09C090958095709561957F4FE5
:100C40008F4F9F4FF0683F2E2AE030E0A3010E94B3
:100C50006307882E861845C0853731F4232D2F7EF3
:100C6000B22E2AE030E025C0932D997FB92E8F3621
:100C7000C1F018F4883579F0B5C0803719F088379D
:100C800021F0B0C0E92FE061BE2EB4FE0DC0FB2DF7
:100C9000F460BF2E09C034FE0AC0292F2660B22E90
:100CA00006C028E030E005C020E130E002C020E1CD
:100CB00032E0F801B7FE07C06081718182819381C3
:100CC0000C5F1F4F06C06081718180E090E00E5F75
:100CD0001F4FA3010E946307882E8618FB2DFF7704
:100CE0003F2E36FE0DC0232D2E7FA22E891458F4E0
:100CF00034FE0BC032FC09C0832D8E7EA82E05C0A9
:100D0000B82CA32C03C0B82C01C0B92CA4FE0FC072
:100D1000FE01E80DF11D8081803321F49A2D997E2A
:100D2000A92E09C0A2FE06C0B394B39404C08A2DB4
:100D3000867809F0B394A3FC11C0A0FE06C0B214DB
:100D400088F4280C922C9B180EC0B21460F4B601E3
:100D500080E290E00E942707B394F7CFB21418F412
:100D60002B1802C0982C212CA4FE10C0B60180E3E1
:100D700090E00E942707A2FE17C0A1FC03C088E7ED
:100D800090E002C088E590E0B6010CC08A2D86781C
:100D900059F0A1FE02C08BE201C080E2A7FC8DE207
:100DA000B60190E00E942707891438F4B60180E369
:100DB00090E00E9427079A94F7CF8A94F301E80DF8
:100DC000F11D8081B60190E00E9427078110F5CFC8
:100DD000222009F442CEB60180E290E00E9427076B
:100DE0002A94F6CFF6018681978102C08FEF9FEF9C
:100DF0002B960FB6F894DEBF0FBECDBFDF91CF911B
:100E00001F910F91FF90EF90DF90CF90BF90AF9028
:100E10009F908F907F906F905F904F903F902F901A
:100E20000895FC010590615070400110D8F780953D
:100E300090958E0F9F1F0895FC01615070400190A6
:100E40000110D8F7809590958E0F9F1F08950F93EE
:100E50001F93CF93DF93FB01238121FD03C08FEF0D
:100E60009FEF2CC022FF16C0468157812481358117
:100E70004217530744F4A081B1819D012F5F3F4F7A
:100E8000318320838C93268137812F5F3F4F3783B7
:100E9000268314C08B01EC01FB010084F185E02D59
:100EA0001995892BE1F6D80116968D919C9117978B
:100EB000019617969C938E931697CE01DF91CF9152
:100EC0001F910F910895FA01AA27283051F120317E
:100ED00081F1E8946F936E7F6E5F7F4F8F4F9F4FCE
:100EE000AF4FB1E03ED0B4E03CD0670F781F891F10
:100EF0009A1FA11D680F791F8A1F911DA11D6A0FDE
:100F0000711D811D911DA11D20D009F468943F9190
:100F10002AE0269F11243019305D3193DEF6CF018F
:100F20000895462F4770405D4193B3E00FD0C9F755
:100F3000F6CF462F4F70405D4A3318F0495D31FDC2
:100F40004052419302D0A9F7EACFB4E0A695979515
:100F5000879577956795BA95C9F7009761057105EB
:100F600008959B01AC010A2E069457954795379535
:100F70002795BA95C9F7620F731F841F951FA01D8F
:060F80000895F894FFCF74
:100F8600881301015B455854454E445D204C616E03
:100F960065202575202B2575206D73202864656EC8
:100FA60073697479203E2035290D0A000D0A5B42CB
:100FB6004F4F545D2041546D656761333238502080
:100FC60054726166666963202B20524649440D0AB5
:100FD600005B494E464F5D20526561647920776912
:100FE600746820342072656164657273206F6E20A8
:100FF60052312F52322F52332F52340D0A000D0A1E
:101006005B434F554E54205550444154455D0D0A9F
:101016000052656164657220257520436F756E7494
:081026003A2025750D0A0000B7
:00000001FF
